{
  "contractName": "HelloWorld",
  "abi": [
    {
      "constant": true,
      "inputs": [],
      "name": "test",
      "outputs": [
        {
          "name": "",
          "type": "string"
        }
      ],
      "payable": false,
      "stateMutability": "pure",
      "type": "function"
    },
    {
      "constant": false,
      "inputs": [],
      "name": "test1",
      "outputs": [
        {
          "name": "",
          "type": "string"
        }
      ],
      "payable": false,
      "stateMutability": "nonpayable",
      "type": "function"
    },
    {
      "constant": false,
      "inputs": [
        {
          "name": "s",
          "type": "string"
        }
      ],
      "name": "echo",
      "outputs": [
        {
          "name": "",
          "type": "string"
        }
      ],
      "payable": false,
      "stateMutability": "nonpayable",
      "type": "function"
    }
  ],
  "bytecode": "0x608060405234801561001057600080fd5b5061030e806100206000396000f300608060405260043610610057576000357c0100000000000000000000000000000000000000000000000000000000900463ffffffff1680636b59084d1461005c578063f15da729146100ec578063f8a8fd6d146101ce575b600080fd5b34801561006857600080fd5b5061007161025e565b6040518080602001828103825283818151815260200191508051906020019080838360005b838110156100b1578082015181840152602081019050610096565b50505050905090810190601f1680156100de5780820380516001836020036101000a031916815260200191505b509250505060405180910390f35b3480156100f857600080fd5b50610153600480360381019080803590602001908201803590602001908080601f016020809104026020016040519081016040528093929190818152602001838380828437820191505050505050919291929050505061029b565b6040518080602001828103825283818151815260200191508051906020019080838360005b83811015610193578082015181840152602081019050610178565b50505050905090810190601f1680156101c05780820380516001836020036101000a031916815260200191505b509250505060405180910390f35b3480156101da57600080fd5b506101e36102a5565b6040518080602001828103825283818151815260200191508051906020019080838360005b83811015610223578082015181840152602081019050610208565b50505050905090810190601f1680156102505780820380516001836020036101000a031916815260200191505b509250505060405180910390f35b60606040805190810160405280600b81526020017f576f726c642048656c6c6f000000000000000000000000000000000000000000815250905090565b6060819050919050565b60606040805190810160405280600a81526020017f48656c6c6f576f726c64000000000000000000000000000000000000000000008152509050905600a165627a7a7230582043432ecf43dab3b0a6a359a3aefcba9a431d5273b88c4924c994701996ac79e60029",
  "source": "pragma solidity ^0.4.4;\r\ncontract HelloWorld {\r\n  function test() pure public returns (string) {\r\n    return \"HelloWorld\";\r\n  }\r\n\r\n  function test1() public returns (string) {\r\n    return \"World Hello\";\r\n  }\r\n\r\n  function echo(string s) public returns (string){\r\n    return s;\r\n  }\r\n}\r\n",
  "sourcePath": "C:\\Users\\ERYEER\\Desktop\\SmartContract\\demo1\\contracts\\HelloWorld.sol",
  "compiler": {
    "name": "solc",
    "version": "0.4.24+commit.e67f0147.Emscripten.clang"
  },
  "schemaVersion": "2.0.1",
  "updatedAt": "2018-08-04T14:14:24.067Z"
}