{
  "contractName": "HelloWord",
  "abi": [
    {
      "constant": true,
      "inputs": [],
      "name": "test",
      "outputs": [
        {
          "name": "",
          "type": "string"
        }
      ],
      "payable": false,
      "stateMutability": "pure",
      "type": "function"
    }
  ],
  "bytecode": "0x608060405234801561001057600080fd5b5061013f806100206000396000f300608060405260043610610041576000357c0100000000000000000000000000000000000000000000000000000000900463ffffffff168063f8a8fd6d14610046575b600080fd5b34801561005257600080fd5b5061005b6100d6565b6040518080602001828103825283818151815260200191508051906020019080838360005b8381101561009b578082015181840152602081019050610080565b50505050905090810190601f1680156100c85780820380516001836020036101000a031916815260200191505b509250505060405180910390f35b60606040805190810160405280600a81526020017f48656c6c6f576f726c64000000000000000000000000000000000000000000008152509050905600a165627a7a72305820d93b24d02c6d083a7ea20a4917947aa8b478abe772f35aeeee0ec217a43ca6de0029",
  "source": "pragma solidity ^0.4.4;\r\ncontract HelloWord {\r\n  function test() pure public returns (string) {\r\n    return \"HelloWorld\";\r\n  }\r\n}\r\n",
  "sourcePath": "C:\\Users\\ERYEER\\Desktop\\SmartContract\\demo1\\contracts\\HelloWorld.sol",
  "compiler": {
    "name": "solc",
    "version": "0.4.24+commit.e67f0147.Emscripten.clang"
  },
  "schemaVersion": "2.0.1",
  "updatedAt": "2018-08-04T13:52:41.321Z"
}