{
  "contractName": "Math",
  "abi": [
    {
      "constant": true,
      "inputs": [
        {
          "name": "a",
          "type": "uint256"
        },
        {
          "name": "b",
          "type": "uint256"
        }
      ],
      "name": "mulAtoB",
      "outputs": [
        {
          "name": "c",
          "type": "uint256"
        }
      ],
      "payable": false,
      "stateMutability": "pure",
      "type": "function"
    }
  ],
  "bytecode": "0x608060405234801561001057600080fd5b5060c58061001f6000396000f300608060405260043610603f576000357c0100000000000000000000000000000000000000000000000000000000900463ffffffff1680637768f201146044575b600080fd5b348015604f57600080fd5b5060766004803603810190808035906020019092919080359060200190929190505050608c565b6040518082815260200191505060405180910390f35b60008183029050929150505600a165627a7a7230582077a2c57d0a7f8e728ea0faf50e07c219ef94129109fd569cd59095635f0544130029",
  "source": "pragma solidity ^0.4.4;\r\n\r\ncontract Math {\r\n  function mulAtoB(uint a, uint b) pure public returns (uint c) {\r\n    c = a * b;\r\n  }\r\n}\r\n",
  "sourcePath": "C:\\Users\\ERYEER\\Desktop\\SmartContract\\demo1\\contracts\\Math.sol",
  "compiler": {
    "name": "solc",
    "version": "0.4.24+commit.e67f0147.Emscripten.clang"
  },
  "schemaVersion": "2.0.1",
  "updatedAt": "2018-08-07T14:30:24.452Z"
}